:020000040800F2
:10000000880A0020452A0008150C0008170C000873
:100010001B0C00081F0C0008230C00080000000047
:10002000000000000000000000000000270C000895
:10003000290C0008000000002B0C00082D0C000803
:100040005F2A00085F2A00085F2A00085F2A00086C
:100050005F2A00085F2A00085F2A00085F2A00085C
:100060005F2A00085F2A00085F2A00085F2A00084C
:100070005F2A00085F2A00085F2A00085F2A00083C
:100080005F2A00085F2A00085F2A00085F2A00082C
:100090005F2A00085F2A00085F2A00085F2A00081C
:1000A0005F2A00085F2A00085F2A00085F2A00080C
:1000B0005F2A00085F2A00085F2A00085F2A0008FC
:1000C0005F2A00085F2A00085F2A00085F2A0008EC
:1000D0005F2A0008BB290008450F00085F2A0008B6
:1000E0005F2A00085F2A00085F2A00085F2A0008CC
:1000F0005F2A00085F2A00085F2A00085F2A0008BC
:100100005F2A00085F2A00085F2A00085F2A0008AB
:100110005F2A00085F2A00085F2A0008911B000878
:100120005F2A00085F2A00085F2A00085F2A00088B
:1001300000F002F800F090F80AA090E8000C824469
:100140008344AAF10107DA4501D100F085F8AFF246
:10015000090EBAE80F0013F0010F18BFFB1A43F0A5
:10016000010318473C8300005C830000103A24BF61
:1001700078C878C1FAD8520724BF30C830C144BF0C
:1001800004680C607047000000230024002500264E
:10019000103A28BF78C1FBD8520728BF30C148BFEA
:1001A0000B6070476E2904F0C683702904F02D821D
:1001B000662905F0AB85652905F0A885672905F056
:1001C000A5856129AFF3008003681B0A28BF41F0B1
:1001D0008001692904F09E81642904F09B817529BE
:1001E00004F098816F2904F0BE84782904F0F98125
:1001F000E92904F05984E42904F05684F52904F02F
:100200005384EF2904F0BB84F82904F0F8810368D3
:10021000DB0928BF41F08001632904F0C8837329FA
:1002200004F0CD83E32904F01387F32904F0188741
:10023000002070471FB504F069FF04000020002172
:1002400005F062FC401C60600020002105F046FCC7
:10025000E0601FBD10B510BD04F02AFF1146FFF786
:10026000E9FF00F040F905F007F803B4FFF7F2FFEB
:1002700003BC02F047FB000038B500F0C5FF0446A0
:10028000CCB9012000F0DDFF044684B96B464FF481
:1002900096720021012001F014F8044614B9BDF84B
:1002A000000038BD092C06D16FF00100F9E72146A6
:1002B000FEA004F0F9F84FF0FF30F2E73EB5054636
:1002C000681C18B901F0C8F8044604E0A8B201217E
:1002D00001F08CF8044654B900201021CDE900014A
:1002E0004FF4FC63F6A2029001F03EFF09E000200B
:1002F0001021CDE900014FF4FC63F4A2029001F05B
:1003000033FF3EBDFEB505460027EBE0052F3FD28B
:10031000DFE807F0033F72859700701CC6B200202B
:1003200080231A460146009001F09CFC0020102119
:10033000CDE900014FF6E073E7A20146029001F01B
:1003400013FF00BFE74800680028FBD000F05CFF07
:100350000446D4B9012000F074FF04468CB9002093
:100360001021CDE900014FF6E073DFA2029001F009
:10037000FBFE00BFDB4800680028FBD100260127F8
:1003800006E0DCA004F090F802E0E2A004F08CF8B3
:10039000A3E0701CC6B200201021CDE900014FF689
:1003A000E073E3A22021029001F0DEFE00F02CFFBA
:1003B000044604BB022000F044FF0446DCB90020E0
:1003C0001021CDE900014FF6E073C7A23021029061
:1003D00001F0CAFE00BFC34800680028FBD110210D
:1003E000CDE900014FF6E073D5A24021029001F063
:1003F000BBFE0026022770E000F046FF044624B949
:10040000D1A004F051F8032704E0D5A004F04CF883
:10041000002600274FF4966002F047FA5DE000F0F6
:1004200098FF044624B9D6A004F03EF8042703E060
:100430000027D8A004F038F84FF4966002F035FA9F
:100440004BE02946DCA004F02FF8A9B2022000F00E
:100450009DFF0446DCBB00201021CDE900014FF4D4
:10046000FC63DAA25021029001F07EFE00201021F0
:10047000CDE900014FF4FC63D8A26021029001F0A5
:1004800073FE00201021CDE900014FF4FC63D5A2DA
:1004900060210290202001F021FF102000214FF464
:1004A000FC62CDE900210290AAB203236021402022
:1004B00001F040FF4FF47A7002F0F7F94FF47A70D0
:1004C00002F0F3F94FF47A7002F0EFF9FEBDFFE7A6
:1004D0000027C5A003F0E8FF00BF00BF4FF4C870BD
:1004E00002F0E3F912E70EB50024002500264FF4D0
:1004F000A06002F0C7FA02F09BF902F09BF800201E
:1005000080231A460146009001F0ACFB4FF4E13025
:1005100002F007FA4FF4614000F043FD00F0CEFD19
:1005200000F0F4FC00F074FC01F078FB962002F07F
:10053000BCF900201021CDE900014FF47843B2A2AC
:100540000146029001F010FE32E04FF4C87002F054
:10055000ACF90120AF4908600020AF49C1F894010F
:10056000AEA003F0A1FF4FF4C87002F09EF9002086
:10057000A84908600120A849C1F89401ACA003F083
:1005800093FF601CC4B20F2C12DB00201021CDE9B8
:1005900000014FF47843ABA2029001F0E5FD00208A
:1005A0009C49086001209C49C1F8940100BFFEE706
:1005B000A74801F0A3FA0028C7D10120A549086087
:1005C000A549C1F89401A54801F061FA0020102165
:1005D000CDE900014FF4FC63A1A2029001F0C4FD3B
:1005E00000201021CDE900014FF4FC639FA22021DF
:1005F000029001F0B9FD00201021CDE900014FF477
:10060000FC639DA220210290402001F067FE102093
:1006100000214FF4FC620323CDE9002102908F48B2
:1006200002882021502001F085FE4FF47A7002F0FC
:100630003CF94FF47A7002F038F94FF47A7002F016
:1006400034F9002080231A460146009001F00AFB8D
:10065000012024498C31086098E2002000F0F2FB70
:100660000446032C20D100207C49088000248023EC
:100670001A460146009001F0F5FA00201021CDE95C
:1006800000014FF6E0737DA20146029001F06CFD7F
:1006900000201021CDE900014FF6E0737BA202900B
:1006A00001F062FD0020F7E060E10000C9FAB3C983
:1006B000CCD8D5F7CAA7B0DC3A2025640D0A0000D3
:1006C000C9BEB3FDB3C9B9A600000000C9BEB3FDE1
:1006D000CAA7B0DC00000000C7EBB0B4CFC2CAD6D6
:1006E000D6B8000004012142C7EBCBC9BFAACAD6C5
:1006F000D6B80000C9FAB3C9D6B8CEC6CCD8D5F79B
:10070000CAA7B0DC2C20C7EBD6D8B0B4CAD6D6B8AE
:100710000D0A0000BBF1C8A1D6B8CEC6CAA7B0DC8E
:100720002C20C7EBB0B4CFC2CAD6D6B80D0A000091
:10073000C7EBD4D9B0B4CFC2CAD6D6B80000000037
:10074000C7EBC9D4BAF20000BBF1C8A1D6B8CEC677
:10075000B3C9B9A62C20C7EBC9D4BAF30D0A00005F
:10076000BBF1C8A1D6B8CEC6CAA7B0DC2C20C7EB57
:10077000D6D8D0C2C2BCC8EBD6B8CEC60D0A0000CF
:10078000C9FAB3C9D6B8CEC6CCD8D5F7B3C9B9A6BD
:100790000D0A0000C9FAB3C9D6B8CEC6CCD8D5F771
:1007A000CAA7B0DC2C20C7EBD6D8D0C2C2BCC8EBDD
:1007B000D6B8CEC60D0A0000B4A2B4E6D6B8CEC6EE
:1007C00049443A2025640D0A00000000C2BCC8EB71
:1007D000D6B8CEC6B3C9B9A600000000D6B8CEC6FA
:1007E0000000000049440000B4A2B4E6D6B8CEC66A
:1007F000CAA7B0DC2C20C7EBD6D8D0C2C2BCC8EB8D
:10080000D6B8CEC60D0A0000D5FDD4DAB3F5CABC01
:10081000BBAF00009481214200002342CEB4BCEC67
:10082000B2E2B5BDC4A3BFE92121210D0A00000039
:10083000B3A2CAD4C1ACBDD3C4A3BFE92E2E2E0D22
:100840000A000000B3F5CABCBBAFCAA7B0DC000009
:100850001C0000209401234200802142000000205F
:10086000B3F5CABCBBAFB3C9B9A60000D6B8CEC6F3
:10087000CAFDC1BF000000003A000000BFAACABC08
:10088000C2BCC8EBD6B8CEC600000000C7EBC9E8B2
:10089000D6C3D6B8CEC600001021CDE900014FF670
:1008A000E073AFF2C0020290502001F017FD20204B
:1008B00000214FF6E0720323CDE900210290B448F5
:1008C00002882021102001F035FD37E0002000F0E3
:1008D000B9FA0446022C17D1AD480088002804DD7F
:1008E000AB480088401EAA490880202000214FF60E
:1008F000E0720323CDE900210290A548028820215F
:10090000102001F017FD19E0042C17D1A048008831
:10091000B0F5967F04DA9E480088401C9C49088008
:10092000202000214FF6E0720323CDE90021029040
:10093000974802882021102001F0FCFC032CC5D12F
:10094000002094490860C82001F0AFFF904800885B
:10095000FFF7D8FC01209049C1F8900100208023C6
:100960001A460146009001F07DF989E0012CFCD186
:1009700000250024002080231A460146009001F043
:1009800071F900201021CDE900014FF4784383A2D2
:100990000146029001F0E8FB202000214FF478424C
:1009A000CDE9002102902A4603231021084601F0D8
:1009B000C1FC39E0002000F045FA0446022C20D1A9
:1009C000002D0EDD6D1E202000214FF47842CDE970
:1009D00000210290AAB203231021084601F0AAFCCC
:1009E00022E00DBB4FF0FF3500202021CDE90001B2
:1009F0004FF478436EA210210290084601F06EFC7D
:100A000012E0042C10D1B5F5967F00DA6D1C202081
:100A100000214FF47842CDE900210290AAB20323CD
:100A20001021084601F086FC012CC3D10020802350
:100A30001A460146009001F015F900201021CDE979
:100A400000014FF478435BA20146029001F08CFB59
:100A5000002050490860C82001F027FF2846FFF712
:100A60002DFC4FF47A7001F020FF01204A49C1F8B3
:100A70009001002080231A460146009001F0F2F810
:100A800044488C38006801287DD100204149086025
:100A900080231A460146009001F0E4F8002010215E
:100AA000CDE900011F2345A20146029001F05CFB45
:100AB0004FF4967001F0F9FEFFF7DEFB0646002EBC
:100AC00022DB00201021CDE900014FF4FC633FA29E
:100AD000029001F049FB202000214FF4FC62CDE997
:100AE00000210290B2B203230146102001F022FC43
:100AF000314639A003F0D8FC01203C4908600020B1
:100B00003B49C1F8940123E0B01C88B900201021B2
:100B1000CDE900014FF4784336A2029001F024FBA6
:100B200000203249086001203149C1F894010FE0EA
:100B300000201021CDE900011F2331A2029001F015
:100B400013FB00202949086001202949C1F89401BC
:100B50000120104908604FF47A7001F0A6FE4FF4AE
:100B60007A7001F0A2FE002080231A460146009010
:100B700001F078F801202549C1F894012449086062
:100B80000020224900E001E0C1F8A00165E5000075
:100B9000000000209001214200002142D1A1D4F1A7
:100BA000D2AAC9BEB3FDB5C4D6B8CEC600000000F7
:100BB000414C4C00C9BEB3FDD6D00000CAB6B1F05E
:100BC000D6D0C7EBC9D4BAF300000000CAB6B1F062
:100BD000B3C9B9A600000000CAB6B1F0B3C9B9A63E
:100BE0002C2049443A25640D0A00000094812142DA
:100BF00000002342CAB6B1F0CAA7B0DC0000000072
:100C0000C7EBD6D8B0B4CAD6D6B80000008021420F
:100C100094012342704700BFFEE700BFFEE700BF1C
:100C2000FEE700BFFEE7704770477047704700005F
:100C30000CB50020019000906C48006840F48030B2
:100C40006A49086000BF6948006800F400300090FD
:100C50000198401C0190009818B90198B0F5A06F58
:100C6000F1D16248006800F4003010B1012000901A
:100C700001E0002000900098012843D15C48006802
:100C800040F010005A4908600846006820F0030050
:100C900008600846006840F0020008605348406859
:100CA000524948600846406848600846406840F439
:100CB000806048600846406820F47C104860084620
:100CC000406840F4E81048600846006840F08070D2
:100CD000086000BF4548006800F000700028F9D0A7
:100CE0004248406820F00300404948600846406898
:100CF00040F00200486000BF3C48406800F00C0033
:100D00000828F9D10CBD10B5FFF792FF10BD10B542
:100D10003648006840F001003449086008464068E1
:100D20003449084031494860084600683249084063
:100D30002E4908600846006820F4802008600846B4
:100D4000406820F4FE0048604FF41F008860FFF701
:100D5000DAFF4FF000602949086010BD10B500218E
:100D600000200022214B5B6803F00C0121B1042913
:100D700006D0082928D107E0214B224C236027E028
:100D80001F4B204C236023E0184B5B6803F470106A
:100D9000164B5B6803F48032022303EB904022B9C8
:100DA000194B4343174C23600DE0104B5B6803F471
:100DB000003323B1144B4343124C236003E0104B28
:100DC0004343104C236003E00D4B0E4C236000BFE7
:100DD00000BF064B5B68C3F303130C4CE15C094B8B
:100DE0001B68CB40074C236010BD00000010024080
:100DF000002002400000FFF8FFFFF6FE08ED00E0D3
:100E000000127A000400002000093D0008000020C4
:100E100008B50121442002F0BFF91C20ADF8000004
:100E200048208DF803006946354801F0F9FE01209D
:100E3000ADF8000028208DF803006946314801F024
:100E4000EFFE08BD10B5044614B101202E4908700C
:100E50002D480078002837D01021294801F073FF71
:100E600078B10821264801F06EFF50B104212448D2
:100E700001F069FF28B10121224801F064FF012837
:100E800022D10A2001F011FD00201F490870102115
:100E90001B4801F058FF08B9012010BD082118486F
:100EA00001F051FF08B90220F7E70421144801F0CE
:100EB0004AFF08B90320F0E70121124801F043FF7F
:100EC00001281BD10420E8E710210D4801F03BFF69
:100ED000012813D108210A4801F035FF01280DD15E
:100EE0000421074801F02FFF012807D101210548FF
:100EF00001F029FF10B90120034908700020CCE758
:100F000000180140000801401800002008B5012128
:100F1000082002F041F94FF48070ADF80000102075
:100F20008DF8030003208DF802006946044801F0A3
:100F300077FE4FF48071024801F021FF08BD0000E8
:100F4000000C014010B540F22551564802F048FB14
:100F5000F8B1544802F0C4FAC4B25348008800F40F
:100F60000040B0B950480088B0F5C87F12DA0021BF
:100F70004E4803F03DFA4C48008818B901214B480F
:100F800002F0A2FF48490888411C474A118048499D
:100F90000C5405E04448008840F400404249088071
:100FA00010BD10B586B004460121042002F0F4F80B
:100FB0000121480402F0FDF83A4802F051F90420FA
:100FC000ADF8100003208DF8120018208DF81300E2
:100FD00004A9384801F024FE0820ADF810000420D0
:100FE0008DF8130004A9334801F01AFE0094002084
:100FF000ADF80400ADF80600ADF80800ADF80C003F
:101000000C20ADF80A006946264802F06CF901216F
:10101000244802F0F4F9012240F22551214802F05F
:10102000FAF926208DF8140002208DF8150003200F
:101030008DF8160001208DF8170005A801F027FD96
:1010400041F61F41632000F0B8FD002016490880DA
:101050000021164802F038FF06B010BD0FB438B5B5
:1010600005A800901448009A049903F00BFA002098
:101070000090114803F0AAFB85B200240DE000BFE8
:101080004021084802F096FA0028F9D00A48015D8C
:10109000044802F021FA601C84B2AC42EFDB38BC99
:1010A0005DF814FB004400401A00002000140040CA
:1010B0004000002000080140D001002008B50121B7
:1010C000042002F069F80220ADF8000028208DF815
:1010D000030003208DF802006946FA4801F0A0FDE4
:1010E0001020ADF800008DF803006946F54801F0C6
:1010F00097FD1021F34801F042FE08BD00BFF24900
:10110000098801F040010029F9D0EF49091D088044
:10111000704710B5EF20FFF7F1FF0120FFF7EEFF5A
:1011200010BD10B5E9490968080EFFF7E7FFE74869
:101130000068C0F30740FFF7E1FFE4480088C0F310
:101140000720FFF7DBFFE1490878FFF7D7FF10BD65
:1011500010B504462046FFF7D1FF10BD10B5044678
:10116000C4F30720FFF7CAFFE0B2FFF7C7FF10BDC7
:1011700010B504462046FFF7C1FF10BD10B5044668
:101180002012FFF7BBFFE0B2FFF7B8FF10BD7CB540
:101190000546EF208DF8000001208DF80100CB48B6
:1011A0000068000E8DF80200C8480068000C8DF839
:1011B0000300C6480088000A8DF80400C348007880
:1011C0008DF8050007208DF8060000208DF8070037
:1011D000BF49088012E0012001F067FBBC4800888D
:1011E00000F4004050B10020B94908806946B94870
:1011F00003F0DAFA04460CB120467CBD681E80B2CA
:10120000051EE8D100BFF8E770B5FFF782FFFFF7D2
:1012100088FF0120FFF79CFF0320FFF79FFF0120BD
:10122000FFF7A6FF05263046FFF7A8FF4FF4FA6048
:10123000FFF7ADFF05460DB16C7A00E0FF242046B4
:1012400070BD2DE9F0410546FFF763FFFFF769FF29
:101250000120FFF77DFF0420FFF780FF0220FFF74A
:1012600087FF2846FFF74AFFEF1D3846FFF786FF46
:101270004FF4FA60FFF78BFF06460EB1747A00E078
:10128000FF242046BDE8F08170B5FFF742FFFFF76D
:1012900048FF0120FFF75CFF0320FFF75FFF0320FB
:1012A000FFF766FF07263046FFF768FF4FF4FA6046
:1012B000FFF76DFF05460DB16C7A00E0FF24204674
:1012C00070BD2DE9F04781460D4616461F46FFF7D3
:1012D00020FFFFF726FF0120FFF73AFF0820FFF766
:1012E0003DFF0420FFF744FF4846FFF707FF2812A1
:1012F000FFF704FFE8B2FFF701FF3012FFF7FEFE31
:10130000F0B2FFF7FBFE09F10D0000EB2520E9B27A
:10131000084400EB2620F1B200EB010A5046FFF72B
:101320002DFF4FF4FA60FFF732FF044664B194F8E2
:101330000980E07AA17A00EB01203880607B217B74
:1013400000EB0120788001E04FF0FF084046BDE847
:10135000F08770B5FFF7DDFEFFF7E3FE0120FFF732
:10136000F7FE0320FFF7FAFE0520FFF701FF09262D
:101370003046FFF703FF4FF4FA60FFF708FF05461A
:101380000DB16C7A00E0FF24204670BD2DE9F041DC
:1013900006460C46FFF7BDFEFFF7C3FE0120FFF730
:1013A000D7FE0620FFF7DAFE0620FFF7E1FE304603
:1013B000FFF7A4FE2012FFF7A1FEE0B2FFF79EFEAA
:1013C00006F10D0000EB2420E1B200EB01084046DD
:1013D000FFF7D4FE4FF4FA60FFF7D9FE07460FB1CE
:1013E0007D7A00E0FF252846BDE8F0812DE9F04137
:1013F00004460D46FFF78DFEFFF793FE0120FFF731
:10140000A7FE0720FFF7AAFE0C20FFF7B1FE20126F
:10141000FFF774FEE0B2FFF771FE2812FFF76EFED1
:10142000E8B2FFF76BFE142000EB2420E1B2084481
:1014300000EB2520E9B200EB01084046FFF79EFED5
:101440004FF4FA60FFF7A3FE07460FB17E7A00E083
:10145000FF263046BDE8F08170B5FFF75AFEFFF772
:1014600060FE0120FFF774FE0320FFF777FE0D20DA
:10147000FFF77EFE11263046FFF780FE4FF4FA603C
:10148000FFF785FE05460DB16C7A00E0FF2420468B
:1014900070BD014621294BD2DFE801F01120222442
:1014A00026282A2C2E3032344A4A4A4A36384A4AAA
:1014B0004A3A4A4A3C3E4042444A4A46480006A00C
:1014C00038E0000000080140004400401C000020FB
:1014D0001A000020400000204F4B000098A029E097
:1014E0009BA027E09FA025E0A3A023E0AAA021E0E5
:1014F000B1A01FE0B7A01DE0C4A01BE0C6A019E08A
:10150000C9A017E0CCA000BFD4A013E0D7A011E081
:10151000DAA00FE0E2A00DE0E5A00BE0E7A009E013
:10152000EAA007E0EEA005E0F2A003E0F4A001E0ED
:10153000F6A000BF00BF70472DE9F04706460D46F4
:10154000FFF7E7FDFFF7EDFD0120FFF701FE0520A6
:10155000FFF704FE0E20FFF70BFE3046FFF7CEFD2F
:101560002846FFF7CBFD701900F114084046FFF73D
:1015700005FE4FF4FA60FFF70AFE07460FB17C7ACA
:1015800000E0FF241CB9E6A002F08EFF07E0204631
:10159000FFF77FFF81464946E6A002F085FF20461F
:1015A000BDE8F0872DE9F0410546FFF7B2FDFFF7F2
:1015B000B8FD0120FFF7CCFD0320FFF7CFFD0F2082
:1015C000FFF7D6FD13273846FFF7D8FD4FF47A70A2
:1015D000FFF7DDFD0446BCB1667AE07BA17B00EB42
:1015E00001202880607CA870A07C0006E17C00EBD4
:1015F0000140217D00EB0120617D08446860E07DB1
:101600002872607E687200E0FF26A6B92988CBA008
:1016100002F04AFFA978CFA002F046FFD1A0696886
:1016200002F042FF687A4FF4165200FB02F1D0A09C
:1016300002F03AFF07E03046FFF72BFF80464146B5
:10164000BCA002F031FF3046BDE8F0812DE9F04149
:101650000446FFF75EFDFFF764FD0120FFF778FD0C
:101660000720FFF77BFD1520FFF782FD200EFFF717
:1016700045FDC4F30740FFF741FDC4F30720FFF722
:101680003DFDE0B2FFF73AFD1D2000EB1460C4F30E
:1016900007410844C4F307210844E1B2471838461B
:1016A000FFF76CFDB54804604FF4FA60FFF76FFD7B
:1016B00006460EB1757A00E0FF25B04804601DB9FA
:1016C000AFA002F0F1FE07E02846FFF7E2FE8046F9
:1016D000414698A002F0E8FE2846BDE8F0812DE9D9
:1016E000F04781460E46FFF714FDFFF71AFD012073
:1016F000FFF72EFD2420FFF731FD1820FFF738FDFE
:101700004846FFF7FBFC002407E0305DFFF7F6FCDE
:10171000305D384487B2601CC4B2202CF5DB09F17F
:101720003D00384487B23846FFF728FD4FF4FA6091
:10173000FFF72DFD054615B195F809802CE129E14B
:10174000CAFDBEDDB0FCBDD3CAD5B4EDCEF30000FA
:10175000B4ABB8D0C6F7C9CFC3BBD3D0CAD6D6B8FE
:1017600000000000C2BCC8EBD6B8CEC6CDBCCFF1DD
:10177000CAA7B0DC00000000D6B8CEC6CDBCCFF101
:10178000CCABB8C9A1A2CCABB5ADB6F8C9FAB2BB67
:10179000B3C9CCD8D5F70000D6B8CEC6CDBCCFF1F2
:1017A000CCABCAAAA1A2CCABBAFDB6F8C9FAB2BBFF
:1017B000B3C9CCD8D5F70000D6B8CEC6CDBCCFF1D2
:1017C000CCABC2D2B6F8C9FAB2BBB3C9CCD8D5F744
:1017D00000000000D6B8CEC6CDBCCFF1D5FDB3A376
:1017E000A3ACB5ABCCD8D5F7B5E3CCABC9D9A3A8DE
:1017F000BBF2C3E6BBFDCCABD0A1A3A9B6F8C9FA36
:10180000B2BBB3C9CCD8D5F700000000D6B8CEC65D
:10181000B2BBC6A5C5E40000C3BBCBD1CBF7B5BDF9
:10182000D6B8CEC600000000CCD8D5F7BACFB2A249
:10183000CAA7B0DC00000000B7C3CECAD6B8CEC677
:10184000BFE2CAB1B5D8D6B7D0F2BAC5B3ACB3F619
:10185000D6B8CEC6BFE2B7B6CEA70000C9BEB3FDAC
:10186000C4A3B0E5CAA7B0DC00000000C7E5BFD53F
:10187000D6B8CEC6BFE2CAA7B0DC0000BBBAB3E59B
:10188000C7F8C4DAC3BBD3D0D3D0D0A7D4ADCABCB9
:10189000CDBCB6F8C9FAB2BBB3C9CDBCCFF100001C
:1018A000B6C1D0B420464C41534820B3F6B4ED0045
:1018B000CEB4B6A8D2E5B4EDCEF30000CEDED0A70C
:1018C000BCC4B4E6C6F7BAC500000000BCC4B4E6A8
:1018D000C6F7C9E8B6A8C4DAC8DDB4EDCEF3000097
:1018E000BCC7CAC2B1BED2B3C2EBD6B8B6A8B4EDBB
:1018F000CEF30000D6B8CEC6BFE2C2FA00000000A8
:10190000B5D8D6B7B4EDCEF300000000C4A3BFE94C
:10191000B7B5BBD8C8B7C8CFC2EBD3D0CEF30000A1
:101920000D0AC9E8D6C3B2CECAFDB3C9B9A6A3A1F0
:10193000000000000D0A2573000000000D0AC4A37A
:10194000BFE9D7EEB4F3D6B8CEC6C8DDC1BF3D25DA
:10195000640000000D0AB6D4B1C8B5C8BCB63D25B8
:10196000640000000D0AB5D8D6B73D257800000008
:101970000D0AB2A8CCD8C2CA3D2564001C000020C4
:101980000D0AC9E8D6C3B5D8D6B7B3C9B9A6A3A1BD
:10199000000000004FF0FF084046BDE8F0872DE949
:1019A000F04707468846FFF7B4FBFFF7BAFB012074
:1019B000FFF7CEFB0420FFF7D1FB1920FFF7D8FB80
:1019C0003846FFF79BFB07F11E094846FFF7D6FB99
:1019D0004FF4FA60FFF7DBFB064666B1757A002428
:1019E00006E004F10A00305C08F80400601CC4B290
:1019F000202CF6DB00E0FF252846BDE8F0872DE926
:101A0000F04781460D4616461F46FFF782FBFFF75B
:101A100088FB0120FFF79CFB0820FFF79FFB1B20A2
:101A2000FFF7A6FB4846FFF769FB2812FFF766FBA6
:101A3000E8B2FFF763FB3012FFF760FBF0B2FFF78D
:101A40005DFB09F1240000EB2520E9B2084400EB1E
:101A50002620F1B200EB010A5046FFF78FFB4FF44E
:101A6000FA60FFF794FB044664B194F80980E07AC9
:101A7000A17A00EB01203880607B217B00EB012004
:101A8000788001E04FF0FF084046BDE8F0872DE97F
:101A9000F0410646FFF73DFBFFF743FB0120FFF750
:101AA00057FB0320FFF75AFB1D20FFF761FB21279F
:101AB0003846FFF763FB4FF4FA60FFF768FB044614
:101AC00034B1657AE07AA17A00EB0120308000E041
:101AD000FF253DB9E07AA27A00EB022125A002F0B1
:101AE000E3FC08E02846FFF7D4FC80464146AFF20D
:101AF000BC1002F0D9FC2846BDE8F08110B50446C0
:101B0000FFF707FBFFF70DFB0120FFF7F7FA0020B7
:101B1000FFF7F4FA0020FFF7F1FAC82000F0C5FE45
:101B20001948008800F4004008B318480078EF28EE
:101B30001AD116484078012816D114488079072810
:101B400012D11248807800061049C97800EB014094
:101B50000E49097900EB01200C49497908442060BD
:101B600000200949088010BD002007490880012095
:101B7000F9E700000D0AD3D0D0A7D6B8CEC6B8F684
:101B8000CAFD3D25640000001A000020400000202E
:101B900010B501211F4802F060FC68B11E480088A2
:101BA00040F400401C49088001211A4802F066FCFC
:101BB0000021184802F088F910BD7FB505460C4693
:101BC0000121202001F0F5FAADF80450ADF80040F5
:101BD0000020ADF80600ADF8020069460D4801F09E
:101BE00017FE012211460B4802F089F9012109482C
:101BF00002F06AF937208DF80C0000208DF80D00F6
:101C000002208DF80E0001208DF80F0003A800F0CF
:101C10003EFF7FBD001400401A00002008B50121DE
:101C2000482001F0B9FA2020ADF8000010208DF80E
:101C3000030003208DF802006946084800F0F0FF19
:101C40006946074800F0ECFF2021044801F095F8B0
:101C50002021034801F091F808BD0000000C01406C
:101C6000001801402DE9F04706460F4614461D4670
:101C7000DDF820A0681E83B2601E82B2394630466D
:101C800000F0B7FCB8460EE0B14606E0504600F062
:101C900097FC09F101001FFA80F9A145F6DB08F174
:101CA00001001FFA80F8A845EEDBBDE8F08770B5AB
:101CB00004460D4616462B4622462946204600F08D
:101CC00098FC304600F07CFC70BD2DE9FF4F85B0DC
:101CD00081468A460020039083460798A0EB0904BA
:101CE0000898A0EB0A06CDF80890CDF804A0002CC7
:101CF00001DD012705E00CB9002702E04FF0FF37B6
:101D00006442002E02DD4FF0010806E016B94FF0E4
:101D1000000802E04FF0FF386642B44201DD25467C
:101D200000E03546002004901EE0019A91B2029A2C
:101D300090B2129AFFF7BBFF039820440390B3447C
:101D40000398A84205DD0398401B0390029838448D
:101D50000290AB4504DDABEB050B019840440190CC
:101D60000498401C80B20490691C04988842DCDB13
:101D700009B0BDE8F08F2DE9F84305460E46174639
:101D80009846089C33463A46314628460094FFF769
:101D90009CFF43462A46314628460094FFF795FFAC
:101DA00043463A46414628460094FFF78EFF434695
:101DB0003A46314638460094FFF787FFBDE8F8837E
:101DC0002DE9F04706460F469046994600254446C1
:101DD00041E07A1B91B2321B90B24A46FFF767FF8F
:101DE0007A1B91B2321990B24A46FFF760FF3A1956
:101DF00091B2721B90B24A46FFF759FF3A1B91B25B
:101E0000721B90B24A46FFF752FF7A1991B232190B
:101E100090B24A46FFF74BFF3A1B91B2721990B24B
:101E20004A46FFF744FF3A1991B2721990B24A46F6
:101E3000FFF73DFF7A1991B2321B90B24A46FFF785
:101E400036FF6D1C05FB05F004FB040108FB08F0E0
:101E5000814200DD641EA542BBDDBDE8F0872DE9AF
:101E6000FE4F0646894692469B460D9C00962046AC
:101E7000E11704EB5171C910614389B2019105204A
:101E80000290002565E005EB8510F94911F8100076
:101E90009AF80010884259D105EB8510F44901EBFE
:101EA000400040789AF8011088424FD109EB0400B5
:101EB000401E83B23019401E82B24946304600F0BF
:101EC00098FB00273FE04FF0000836E00E9898B9E5
:101ED00005EB8510E64901EB4000801CC05D012147
:101EE00001FA08F1084018B1584600F069FB20E0FB
:101EF0000C9800F065FB1CE005EB8510DC4901EB5C
:101F00004000801CC05D012101FA08F1084020B1A9
:101F10005A4649463046FFF7CAFE701C86B2009802
:101F2000301AA04205D1009E09F101001FFA80F984
:101F300006E008F1010000F0FF08B8F1080FC5DB6A
:101F400000BF781CC7B201988742BCDB00BF681C89
:101F500085B20298854296DBBDE8FE8F2DE9FE4FE3
:101F60000646894692469B460D9C00962046E11700
:101F700004EB5171C910614389B2019105200290AF
:101F800000256DE005EB850000EB4510B94911F81F
:101F900010009AF8001088425FD105EB850000EB35
:101FA0004510B44901EB400040789AF8011088428E
:101FB00053D109EB0400401E83B23019401E82B297
:101FC0004946304600F015FB002743E04FF000087B
:101FD0003AE00E98A8B905EB850000EB4510A5493D
:101FE00001EB4000801CC05D012101FA08F10840AE
:101FF00018B1584600F0E4FA22E00C9800F0E0FA3C
:102000001EE005EB850000EB45109A4901EB40000E
:10201000801CC05D012101FA08F1084020B15A4638
:1020200049463046FFF743FE701C86B20098301ACE
:10203000A04205D1009E09F101001FFA80F906E0D7
:1020400008F1010000F0FF08B8F1080FC1DB00BF84
:10205000781CC7B201988742B8DB00BF681C85B204
:10206000029885428EDBBDE8FE8F2DE9FE4F0646C5
:10207000894692469B460D9C00962046E11704EB4C
:102080005171C910614389B2019126200290002547
:1020900065E005EB0510784911F810009AF800107A
:1020A000884259D105EB0510734901EB4000407897
:1020B0009AF8011088424FD109EB0400401E83B208
:1020C0003019401E82B24946304600F092FA00278D
:1020D0003FE04FF0000836E00E9898B905EB051088
:1020E000654901EB4000801CC05D012101FA08F147
:1020F000084018B1584600F063FA20E00C9800F050
:102100005FFA1CE005EB05105B4901EB4000801C09
:10211000C05D012101FA08F1084020B15A46494644
:102120003046FFF7C4FD701C86B20098301AA042FA
:1021300005D1009E09F101001FFA80F906E008F1BF
:10214000010000F0FF08B8F1080FC5DB00BF781CE4
:10215000C7B201988742BCDB00BF681C85B20298F9
:10216000854296DBBDE8FE8F2DE9FE4F804689460D
:1021700015469A46DDE90D470C9E2AE0102C09D140
:1021800053462A4649464046CDE901470096FFF7A7
:102190006CFF19E0182C09D153462A46494640469F
:1021A000CDE901470096FFF7D9FE0DE0202C09D1BB
:1021B00053462A4649464046CDE901470096FFF777
:1021C0004EFE01E0BDE8FE8FAD1C08EB04001FFAD7
:1021D00080F828780028D1D100BFF3E72DE9FF4F20
:1021E00083B005468A461746119CAB46204604EB51
:1021F000D071C1F347063046F11706EB5171C91093
:10220000614389B20191A7F12000C7B20AEB040033
:10221000401E83B2A819401E82B25146284600F0E3
:10222000E8F94FF0000954E0102C06D1134800EBF8
:10223000071010F8090002900BE0202C06D110487E
:1022400000EB871010F80900029002E007B0BDE82B
:10225000F08F4FF0000834E01298B8B9012000FA6E
:1022600008F00299084068B1069800F0A9F924E046
:102270003E810008CC7F0008C07A0008105D00088D
:1022800000630008109800F09BF916E0012000FAA6
:1022900008F00299084020B151462846069AFFF7F7
:1022A00006FD681C85B2A5EB0B00B04205D15D466A
:1022B0000AF101001FFA80FA06E008F1010000F0BF
:1022C000FF08B8F1080FC7DB00BF09F101001FFAD2
:1022D00080F901988145A7DB00BFB7E72DE9FE4FE4
:1022E00006460F4614469846DDE90D5ADDF8309053
:1022F00010E0CDE9015ACDF80090227843463946E6
:102300003046FFF76BFF284605EBD07106EB610105
:102310008EB2641C20780028EBD1BDE8FE8F10B58A
:102320000246012000E050430B1EA1F10104E1B27E
:10233000F9D110BD2DE9FF4F85B0074691461D46E6
:10234000DDE913A600200490304606EBD071C1F3FE
:10235000470B002434E0281B401EC1B20A20FFF7BF
:10236000DEFFB9FBF0F00A21B0FBF1F201FB12082D
:102370000498A0B9681EA04211DDB8F1000F0CD17D
:10238000002004FB0B71CDE900A6029088B2202248
:10239000129B0699FFF722FF10E001200490002015
:1023A00008F13001CAB204FB0B71CDE900A602901E
:1023B00088B2129B0699FFF711FF00BF601CC4B2E0
:1023C000AC42C8DB09B0BDE8F08F2DE9FF4F85B006
:1023D000074690461C46DDE91396304606EBD07161
:1023E000C1F3470B3A49404603F0C4FB039003F0A6
:1023F000A1FB80B20490002531E0601B401EC1B2F9
:102400000A20FFF78CFF0499B1FBF0F00A21B0FB22
:10241000F1F201FB120AA01EA84210D10020A11E59
:1024200001FB0B71CDE90096029088B22E22129B1F
:102430000699FFF7D3FE681CC5B2601CC4B2002029
:102440000AF13001CAB205FB0B71CDE9009602908A
:1024500088B2129B0699FFF7C1FE681CC5B2A5425F
:10246000CBDB09B0BDE8F08F2DE9F05F0746884669
:1024700015461E46DDF82890002408EB0600401E95
:1024800083B27819401E82B24146384600F0B1F856
:10249000A24619E04FF0000B10E019F8140000F00C
:1024A00089F8012101EB440119F8010000F082F8DC
:1024B000601C84B20BF101001FFA80FBB345ECDB1A
:1024C0000AF101001FFA80FAAA45E3DBBDE8F09F9C
:1024D0000000C84208B50121082000F05DFE01207F
:1024E000ADF8000010208DF8030003208DF80200E5
:1024F0006946CC4800F094FB0121CA4800F03DFC3D
:102500000121202000F048FE4FF4A060ADF800004B
:1025100010208DF8030003208DF802006946C248A0
:1025200000F07EFB4FF4A061BF4800F026FC0121C3
:10253000402000F031FE4FF4A040ADF80000102024
:102540008DF8030003208DF802006946B74800F0BB
:1025500067FB4FF4A041B54800F00FFC08BD70B513
:1025600004464FF48051B14800F009FC002519E001
:102570000121AC4800F003FC04F0800028B14FF4C6
:102580008061A94800F0F9FB04E04FF48061A6489F
:1025900000F0F5FB0121A34800F0EFFB6006040EFC
:1025A000681CC5B2082DE3DB4FF480519F4800F052
:1025B000E4FB70BD10B504462046FFF7D0FF10BD08
:1025C00010B504462012FFF7CAFFE0B2FFF7C7FFBD
:1025D00010BD10B504464FF48041944800F0CFFB85
:1025E0002046FFF7BCFF4FF48041904800F0C5FB48
:1025F00010BD2DE9F04104460D4616461F462A201F
:10260000FFF7E7FFA11C88B2FFF7DAFFB11C88B221
:10261000FFF7D6FF2B20FFF7DCFF691C88B2FFF71E
:10262000CFFF791C88B2FFF7CBFF2C20FFF7D1FF3B
:10263000BDE8F08110B5FFF74DFF4FF480717A4887
:1026400000F09DFB642000F030F94FF48071764873
:1026500000F093FB642000F028F9642000F025F9D5
:102660001120FFF7B6FF782000F01FF9B120FFF727
:10267000B0FF0220FFF79EFF3520FFF79BFF3620BB
:10268000FFF798FFB220FFF7A4FF0220FFF792FFA9
:102690003520FFF78FFF3620FFF78CFFB320FFF7C1
:1026A00098FF0220FFF786FF3520FFF783FF3620D3
:1026B000FFF780FF0220FFF77DFF3520FFF77AFF4D
:1026C0003620FFF777FFB420FFF783FF0320FFF7E3
:1026D00071FFC020FFF77DFFA220FFF76BFF0220F4
:1026E000FFF768FF8420FFF765FFC120FFF771FF48
:1026F000C520FFF75FFFC220FFF76BFF0D20FFF73C
:1027000059FF0020FFF756FFC320FFF762FF8D201F
:10271000FFF750FF2A20FFF74DFFC420FFF759FFB6
:102720008D20FFF747FFEE20FFF744FFC520FFF79E
:1027300050FF0A20FFF73EFF3620FFF74AFF082030
:10274000FFF738FFE020FFF744FF1220FFF732FFCA
:102750001C20FFF72FFF1020FFF72CFF1820FFF79A
:1027600029FF3320FFF726FF2C20FFF723FF25202A
:10277000FFF720FF2820FFF71DFF2820FFF71AFF93
:102780002720FFF717FF2F20FFF714FF3C20FFF74C
:1027900011FF0020FFF70EFF0320FFF70BFF0320C0
:1027A000FFF708FF1020FFF705FFE120FFF711FFFB
:1027B0001220FFF7FFFE1C20FFF7FCFE1020FFF7A2
:1027C000F9FE1820FFF7F6FE2D20FFF7F3FE282074
:1027D000FFF7F0FE2320FFF7EDFE2820FFF7EAFECB
:1027E0002820FFF7E7FE2620FFF7E4FE2F20FFF763
:1027F000E1FE3B20FFF7DEFE0020FFF7DBFE0320BB
:10280000FFF7D8FE0320FFF7D5FE1020FFF7D2FE1A
:102810003A20FFF7DEFE0520FFF7CCFE2920FFF768
:10282000D8FE10BD000C014000140140001801400A
:1028300010B56FF0040000F074F92E4800682E49BE
:10284000B0FBF1F02D4908700846007800EB40011C
:10285000C1EBC0104FF6FF7101EAC00028490880A3
:1028600010BD0146254A12784A434FF0E0235A61D1
:1028700000229A611A46126942F001021A6100BFF1
:102880004FF0E022106900F001021AB100F480322A
:10289000002AF5D04FF0E022126922F001024FF039
:1028A000E0231A6100229A6170470146144A128897
:1028B0004A434FF0E0235A6100229A611A46126996
:1028C00042F001021A6100BF4FF0E022106900F0EF
:1028D00001021AB100F48032002AF5D04FF0E02254
:1028E000126922F001024FF0E0231A6100229A617E
:1028F000704700000400002000127A002000002031
:1029000022000020014600BF704700BF494A1288DC
:1029100002F04002002AF9D0C2B2464B1B1D1A80B9
:10292000704710B586B00446012144F2040000F05F
:1029300033FC4FF40070ADF8140003208DF816003E
:1029400018208DF8170005A93B4800F069F94FF4ED
:102950008060ADF8140004208DF8170005A93648F2
:1029600000F05EF925208DF8000003208DF80100AD
:102970008DF8020001208DF80300684600F087F80A
:1029800001940020ADF80800ADF80A00ADF80C0085
:10299000ADF810000C20ADF80E0001A9254800F09C
:1029A000A2FC012240F22551224800F034FD012111
:1029B000204800F024FD06B010BD10B540F22551AE
:1029C0001C4800F00DFE10B31A4800F089FDC4B297
:1029D0001A48008800F40040C8B91848008800F47C
:1029E000804060B10A2C03D000201449088020E008
:1029F0001248008840F400401049088019E00D2C6E
:102A000006D10E48008840F480400C49088010E050
:102A10000A480088C0F30D0009490C540748008893
:102A2000401C0649088008460088C72801DD0020B0
:102A3000088010BD00380140000801402800002037
:102A4000600300200948804709480047FEE7FEE789
:102A5000FEE7FEE7FEE7FEE7FEE7FEE7FEE7FEE74E
:102A600004480549054A064B704700000F0D000851
:102A70003101000888040020880A00208806002010
:102A80008806002031490143314A1160704770B512
:102A9000002100230F22C47804B32D4C246804F4D1
:102AA000E064C4F5E064210AC1F10403CA4044783B
:102AB00004FA03F18478144021430901254C067877
:102AC000A155047804F01F050124AC4005786D1170
:102AD000AD0005F1E025C5F8004109E0047804F0F7
:102AE0001F050124AC401C4D0678761145F82640A0
:102AF00070BD1A4A0A400243154B1B1F1A607047EB
:102B000039B1134A121D12680243114B1B1D1A6082
:102B100006E00F4A121D126882430D4B1B1D1A60FE
:102B20007047042808D14FF0E021096941F0040101
:102B30004FF0E022116107E04FF0E021096921F038
:102B400004014FF0E0221161704700000000FA0517
:102B50000CED00E000E400E080E100E080FFFF1FFA
:102B600010B50446CC48844208D10121042000F06D
:102B70002DFB0021042000F029FB46E0C7488442D9
:102B800008D10121082000F021FB0021082000F0DD
:102B90001DFB3AE0C248844208D10121102000F018
:102BA00015FB0021102000F011FB2EE0BD488442EF
:102BB00008D10121202000F009FB0021202000F095
:102BC00005FB22E0B848844208D10121402000F0F2
:102BD000FDFA0021402000F0F9FA16E0B3488442E3
:102BE00008D10121802000F0F1FA0021802000F0BE
:102BF000EDFA0AE0AE48844207D10121801500F0C9
:102C0000E5FA0021A01500F0E1FA10BD10B5012190
:102C1000084600F0DBFA0021012000F0D7FA10BDD1
:102C20002DE9F04102460025002600200023002463
:102C3000002791F803C00CF00F0591F803C00CF0C9
:102C4000100CBCF1000F03D091F802C04CEA05054E
:102C500091F800C0BCF1000F31D0146800202BE0C7
:102C60004FF0010C0CFA00F3B1F800C00CEA0306B7
:102C70009E4220D183004FF00F0C0CFA03F7BC43A7
:102C800005FA03FC4CEA040491F803C0BCF1280FD8
:102C900006D14FF0010C0CFA00FCC2F814C00AE097
:102CA00091F803C0BCF1480F05D14FF0010C0CFAAC
:102CB00000FCC2F810C0401C0828D1D31460B1F841
:102CC00000C0BCF1FF0F34DD546800202EE000F19D
:102CD000080C4FF0010808FA0CF3B1F800C00CEA38
:102CE00003069E4221D183004FF00F0C0CFA03F72C
:102CF000BC4305FA03FC4CEA040491F803C0BCF1A0
:102D0000280F05D100F1080C08FA0CF8C2F814805D
:102D100091F803C0BCF1480F07D100F1080C4FF047
:102D2000010808FA0CF8C2F81080401C0828CED31D
:102D30005460BDE8F0814FF6FF710180022181707F
:102D40000421C17070470246002093680B400BB10C
:102D5000012000E0002070470146886880B270477B
:102D600002460020D3680B400BB1012000E0002098
:102D700070470146C86880B2704701617047416181
:102D800070470AB1016100E041617047C16070475E
:102D90004FF480320A438261816182618269826973
:102DA000704702460020434B18684FF68073184066
:102DB00040EA021008433F4B186070473E49C86123
:102DC0007047F0B50A46002300240021002500F0DA
:102DD0000046B6F1004F02D1364EF16901E0354EA2
:102DE0007168C0F3034583B200F44016B6F5401F86
:102DF00008D121F070612F4E766826F070662D4F55
:102E00007E6012E000F48016B6F5801F06D103261E
:102E100006FA05F4A14341F0706106E0460D360163
:102E200003FA06F6B14341F0706122B1460D360156
:102E300003FA06F6314300F00046B6F1004F02D126
:102E40001C4EF16101E01B4E7160F0BD30B50022F7
:102E50008B071C0F0F2303FA04F2164B08338C1058
:102E600053F824309343134C08348D1044F8253024
:102E700023468C1053F824308C07240F00FA04F4F6
:102E800023430C4C08348D1044F8253030BD0A49DA
:102E9000DC3108607047000000080140000C014070
:102EA000001001400014014000180140001C0140C6
:102EB000002001400000014000002042DF4800687F
:102EC00040F00100DD49086008464068DC490840E0
:102ED000DA49486008460068DA490840D74908607E
:102EE0000846006820F4802008600846406820F406
:102EF000FE0048604FF41F0088607047CF490968A2
:102F000021F48031CD4A11601146096821F48021F5
:102F10001160B0F5803F03D0B0F5802F0ED106E0F0
:102F2000C649096841F48031C44A116007E0C349C9
:102F3000096841F4A021C14A116000E000BF00BF50
:102F4000704710B501460022002300204A11012AD3
:102F500002D1BA4C236806E0022A02D1B74C236A98
:102F600001E0B64C636A01F01F02012494401C404A
:102F70000CB1012000E0002010BD38B50020009009
:102F80000024002500BF3120FFF7DBFF0546009835
:102F9000401C00900098B0F5A06F01D0002DF2D039
:102FA0003120FFF7CEFF08B1012400E000242046C5
:102FB00038BD01460020A14A106820F0F80040EA20
:102FC000C10010607047A0490860704702460020A9
:102FD0009A4B586820F47C1042EA01031843974B3F
:102FE0005860704798490866704701460020934A28
:102FF000506820F003000843506070478F484068D5
:1030000000F00C007047014600208C4A506820F008
:10301000F00008435060704701460020874A50681E
:1030200020F4E06008435060704701460020834A66
:10303000506820F4605040EAC1005060704729B1E8
:103040007E4A527A02437D4B5A7204E07B4A527A9E
:1030500082437A4B5A7270477B49D8310860704777
:1030600001460020754A506820F4404008435060F3
:1030700070470021714A20321170704A82F8201086
:10308000012802D004280AD104E001216B4A203231
:10309000117005E00521694A2032117000E000BF7F
:1030A00000BF70476949086070476449096A014375
:1030B000624A11627047654944390860704730B50B
:1030C00000210022002400235C4D6D6805F00C01F6
:1030D00021B1042905D0082923D105E05C4D056004
:1030E00022E05B4D05601FE0544D6D6805F47012E1
:1030F000524D6D6805F48034022505EB92421CB9EF
:10310000544D554305600BE04C4D6D6805F400359A
:103110001DB1504D5543056002E04D4D55430560CE
:1031200002E04B4D056000BF00BF444D6D6805F0E7
:10313000F0010909484D6B5C0568DD4045603F4D75
:103140006D6805F4E061090A434D6B5C4568DD403C
:1031500085603A4D6D6805F46051C90A3E4D6B5C5F
:103160004568DD40C560354D6D6805F44041890B0B
:103170003A4D6B5CC568B5FBF3F5056130BD29B10F
:103180002E4A526902432D4B5A6104E02B4A526980
:1031900082432A4B5A61704729B1284A92690243F7
:1031A000264B9A6104E0254A92698243234B9A6137
:1031B000704729B1214AD2690243204BDA6104E009
:1031C0001E4AD26982431D4BDA61704729B11B4AFE
:1031D000D2680243194BDA6004E0184AD26882438D
:1031E000164BDA60704729B1144A12690243134B37
:1031F0001A6104E0114A12698243104B1A61704748
:1032000012494039086070470F49C86470470B493C
:10321000C87170470948406A40F0807007494862A9
:10322000704701460020054A92680A400AB1012011
:1032300000E000207047014988727047001002408A
:103240000000FFF8FFFFF6FE000042428004424209
:1032500000127A0000093D002A0000203A000020F8
:1032600010B50446FB48844209D101218803FFF7C9
:10327000ADFF00214FF48040FFF7A8FF32E0F64891
:10328000844209D101214804FFF7ADFF00214FF42A
:103290000030FFF7A8FF25E0F048844209D1012162
:1032A0008804FFF7A0FF00214FF48020FFF79BFF69
:1032B00018E0EB48844209D10121C804FFF793FFCD
:1032C00000214FF40020FFF78EFF0BE0E548844219
:1032D00008D101210805FFF786FF00214FF4801077
:1032E000FFF781FF10BD2DE9F04786B005460E4679
:1032F0000024A24600BFA1460027B08900B100BF4C
:103300002F462C8A4CF6FF700440F08804432C8230
:10331000AC894EF6F3100440B088318908437189B6
:1033200008430443AC81AC8A4FF6FF400440B089A7
:103330000443AC8201A8FFF7C2FEC648874202D10F
:10334000DDF810A001E0DDF80CA0A88900F4004031
:1033500040B10AEBCA0000EB0A1031684900B0FB2B
:10336000F1F807E00AEBCA0000EB0A1031688900A7
:10337000B0FBF1F86420B8FBF0F0040120096421EF
:1033800001FB1089A88900F4004040B1322000EB15
:10339000C900B0FBF1F000F00700044308E0322060
:1033A00000EB09106421B0FBF1F000F00F000443C2
:1033B0002C8106B0BDE8F0874FF416510160002162
:1033C0008180C18001810C21418100218181704770
:1033D00010B502460020108A4FF2FF0318400B88F8
:1033E0004C8823438C882343CC8823431843108282
:1033F00010BD0021018041808180C180704721B1D2
:10340000828942F40052828104E082894DF6FF7382
:103410001A4082817047F0B503460024002600253B
:10342000002040F66A17B94200D100BF1846C1F328
:10343000421401F01F06012707FA06F5012C01D1FD
:103440000C3004E0022C01D1103000E014301AB12D
:1034500007682F43076002E00768AF430760F0BDCD
:103460001AB1838A0B43838202E0838A8B4383826F
:103470007047028A4FF6F0731A400282028A0A43AA
:103480000282704782894FF2FF731A4082818289DB
:103490000A438281704721B1828942F0020282810F
:1034A00004E082894FF6FD731A4082817047028AD8
:1034B0004FF6DF731A400282028A0A430282704783
:1034C00021B1028A42F48042028204E0028A4BF671
:1034D000FF731A4002827047C1F30802828070476E
:1034E00001468888C0F308007047818941F00101D6
:1034F00081817047028BD2B20283028B42EA0122A1
:1035000002837047028B02F47F420283028B0A43DC
:103510000283704721B1828A42F02002828204E055
:10352000828A4FF6DF731A408282704721B1828A05
:1035300042F01002828204E0828A4FF6EF731A4052
:103540008282704721B1828A42F00802828204E0BE
:10355000828A4FF6F7731A408282704721B18289BE
:1035600042F40042828103E08289C2F30E0282812A
:10357000704721B1828A42F40062828204E0828A2A
:103580004FF2FF731A4082827047828A4FF6FB73B4
:103590001A408282828A0A438282704721B1828ADB
:1035A00042F00202828204E0828A4FF6FD731A40E2
:1035B0008282704702460020B1F5007F00D100BF33
:1035C00013880B400BB1012000E00020704701F48C
:1035D0000072B2F5007F00D100BFCA43028070477D
:1035E00070B50246002400230025002040F66A162C
:1035F000B14200D100BFC1F3421501F01F03012603
:1036000006FA03F3012D02D19689334006E0022D1C
:1036100002D1168A334001E0968A33400C1201260B
:1036200006FA04F41688344013B10CB1012000E00E
:10363000002070BD10B50022002340F66A14A1429C
:1036400000D100BF0A1201249440A3B2DC430480DD
:1036500010BD000000380140004400400048004018
:10366000004C00400050004010B50446FE48844223
:1036700008D10121C014FFF7A9FD0021E014FFF7D4
:10368000A5FDC4E0B4F1804F08D101210846FFF741
:10369000AAFD00210120FFF7A6FDB8E0F34884420F
:1036A00008D101210220FFF79EFD00210220FFF733
:1036B0009AFDACE0EE48844208D101210420FFF7D6
:1036C00092FD00210420FFF78EFDA0E0E94884422E
:1036D00008D101210820FFF786FD00210820FFF70F
:1036E00082FD94E0E448844208D101211020FFF7D4
:1036F0007AFD00211020FFF776FD88E0DF48844244
:1037000008D101212020FFF76EFD00212020FFF7C6
:103710006AFD7CE0DA48844208D101214014FFF7B9
:1037200055FD00216014FFF751FD70E0D54884423B
:1037300009D10121C804FFF749FD00214FF4002001
:10374000FFF744FD63E0D048844209D10121080518
:10375000FFF73CFD00214FF48010FFF737FD56E0E6
:10376000CA48844209D101214805FFF72FFD0021F5
:103770004FF40010FFF72AFD49E0C548844208D104
:1037800001214020FFF72FFD00214020FFF72BFDF6
:103790003DE0C048844208D101218020FFF723FD8D
:1037A00000218020FFF71FFD31E0BB48844208D193
:1037B00001218015FFF717FD0021A015FFF713FD6C
:1037C00025E0B648844209D101210804FFF7FEFC38
:1037D00000214FF48030FFF7F9FC18E0B048844234
:1037E00009D101214804FFF7F1FC00214FF400301A
:1037F000FFF7ECFC0BE0AB48844208D101218804C0
:10380000FFF7E4FC00214FF48020FFF7DFFC10BD40
:1038100000220288944B98420ED0994B98420BD0CC
:10382000B0F1804F08D0914B984205D0904B984210
:1038300002D0904B984204D14FF68F731A404B88B8
:103840001A438D4B984207D08C4B984204D04FF6C8
:10385000FF431A40CB881A4302808B8883850B88EC
:103860000385814B98420BD0854B984208D08B4BF7
:10387000984205D08A4B984202D08A4B984201D197
:103880000B7A038601238382704770B500240022DF
:103890000023058C4FF6FE7635400584028C838824
:1038A000048B4FF68F752C40B51E2C400D882C4391
:1038B000751E2A400D892A434D882A436A4DA84225
:1038C0000BD06F4DA84208D0744DA84205D0744D5E
:1038D000A84202D0734DA84213D14FF6F7752A4083
:1038E0004D892A434FF6FB752A408D882A434FF6AF
:1038F000FF652B404FF6FF552B408D892B43CD891B
:103900002B4383800483CD888586028470BD70B587
:10391000002400220023058C4FF6EF763540058405
:10392000028C8388048B48F6FF752C404FF6FF45C8
:103930002C400D884FF6FF7606EA05252C434FF6FE
:10394000DF752A400D8906EA05152A434D8806EAE7
:1039500005152A43444DA84202D0494DA8421DD125
:103960004FF67F752A404D894FF6FF7606EA05151A
:103970002A434FF6BF752A408D8806EA05152A436B
:103980004FF6FF352B404FF2FF752B408D8906EA2D
:1039900085052B43CD8906EA85052B438380048367
:1039A000CD880587028470BD70B5002400220023F5
:1039B000058C4FF6FF6635400584028C8388848B26
:1039C0004FF68F752C404FF6FC752C400D882C431C
:1039D0004FF6FF552A400D894FF6FF7606EA05257A
:1039E0002A434D8806EA05252A431F4DA84202D0E6
:1039F000234DA8421DD14FF2FF752A404D894FF645
:103A0000FF7606EA05252A434FF6FF352A408D88C2
:103A100006EA05252A434EF6FF752B404DF6FF7545
:103A20002B408D8906EA05152B43CD8906EA05153D
:103A30002B4383808483CD888587028470BD70B5D5
:103A4000002200230024058C4EF6FF7635400584C5
:103A5000038C8488828B48F6FF752A404FF6FF4519
:103A60002A400D8820E00000002C014000040040A6
:103A700000080040000C004000100040001400400E
:103A800000340140004C014000500140005401400E
:103A900000180040001C0040002000400040014091
:103AA00000440140004801404FF6FF7606EA052534
:103AB0002A434DF6FF752B400D8906EA05352B4349
:103AC0004D8806EA05352B43FA4DA84202D0FA4D3F
:103AD000A84208D14BF6FF752C408D894FF6FF7632
:103AE00006EA85152C4384808283CD88A0F8405057
:103AF000038470BD828B4FF2FF331A408283828B26
:103B00004FF6FF7303EA01231A4382837047F0B52F
:103B10000C461546002200210026078C4EF6FF7C3D
:103B200007EA0C070784828B018C4FF6FF7707EAC0
:103B3000043640F6FF473A404FF6FF7707EA05277D
:103B40003A434FF6FF7707EA03373A43D94FB84273
:103B50000ED0D94FB8420BD0B0F1804F08D0D74F1C
:103B6000B84205D0D64FB84202D0D64FB84206D19F
:103B70004DF6FF77394046F48057394305E047F664
:103B8000FF57394044F48057394382830184F0BDA4
:103B9000828B4FF6F3731A408283828B0A438283AF
:103BA0007047F0B50C461546002200210026078C10
:103BB0004FF6FF6C07EA0C070784828B018C4FF6E7
:103BC000FF7707EA04264FF60C773A404FF6FF7767
:103BD00007EA03172F433A43B64FB8420ED0B64F09
:103BE000B8420BD0B0F1804F08D0B44FB84205D0E6
:103BF000B34FB84202D0B34FB84206D14FF6FF5789
:103C0000394046F48077394305E04FF2FF57394099
:103C100044F48077394382830184F0BD028B4FF2F4
:103C2000FF331A400283028B4FF6FF7303EA01232E
:103C30001A4302837047F0B50C4615460022002156
:103C40000026078C4FF6EF7C07EA0C070784028BEF
:103C5000018C4FF6FF7707EA041640F6FF473A401B
:103C60004FF6FF7707EA03373A434FF6FF7707EA45
:103C700005273A438F4FB8420ED08F4FB8420BD032
:103C8000B0F1804F08D08D4FB84205D08C4FB8426C
:103C900002D08C4FB84206D14FF6DF77394046F05C
:103CA0001007394305E04FF65F77394044F01007BD
:103CB000394302830184F0BD028B4FF6F3731A403F
:103CC0000283028B0A4302837047F0B50C46154607
:103CD00000220021068C4FF6FE773E400684028BC0
:103CE000018C4FF60C7632407E1C06EA03162E43FA
:103CF0003243704EB0420ED06F4EB0420BD0B0F196
:103D0000804F08D06D4EB04205D06D4EB04202D00B
:103D10006C4EB04206D14FF6FD76314044F00106BC
:103D2000314305E04FF6F576314044F0010631436A
:103D300002830184F0BD70B505460C465D4885429E
:103D40000ED05D4885420BD0B5F1804F08D05B485E
:103D5000854205D05A48854202D05A48854200D152
:103D600000E000BF208850B92389A28861882846D6
:103D7000FFF7ABFFE1882846FFF79EFF25E020888C
:103D800004280AD12389A28861882846FFF753FFB7
:103D9000E1882846FFF742FF17E0208808280AD16B
:103DA0002389A28861882846FFF7FBFEE188284620
:103DB000FFF7EEFE09E02389A28861882846FFF715
:103DC000A6FEE1882846FFF795FE70BD2DE9F0417B
:103DD00005460C4600260127608808B9022600E047
:103DE0000026A088012801D1022700E001272088B1
:103DF000A0B92389A28861882846FFF766FFE18879
:103E00002846FFF759FF23893A4631462846FFF7EF
:103E100012FFE1882846FFF701FF13E02389A288FB
:103E200061882846FFF707FFE1882846FFF7F6FE7E
:103E300023893A4631462846FFF747FFE18828465E
:103E4000FFF73AFFBDE8F0810A884B881A438B8858
:103E50001A43CB881A430B891A434B891A438B891F
:103E60001A43A0F8442070474FF6FF71818000216B
:103E70000180C18041800172704700210180418032
:103E80008180C180018141818181C1817047002190
:103E900001804180012181800021C1800181704722
:103EA0000021018041808180C18001814181818127
:103EB00070470000002C0140003401400004004025
:103EC00000080040000C004021B1028842F00102CD
:103ED000028004E002884FF6FE731A4002807047A9
:103EE00031B1B0F8442042F40042A0F8442005E08B
:103EF000B0F84420C2F30E02A0F8442070471AB173
:103F000083890B43838102E083898B4383817047DC
:103F10008182704741EA0203A0F8483070471AB125
:103F200083890B43838102E083898B4383817047BC
:103F300001894FF6F8721140018170470A4600214D
:103F400001894FF68F73194011430181704730B5D5
:103F500004460D4629462046FFF7F0FF208940F031
:103F60000700208130BD2DE9F04104460D4616467C
:103F70001F46602D06D13B46012231462046FFF701
:103F80005AFE05E03B46012231462046FFF79DFEE2
:103F900029462046FFF7D2FF208940F00700208104
:103FA000BDE8F08130B50C4600210189C9B24FF659
:103FB000FF7505EA0325154325432943018130BDDB
:103FC0002DE9F04105460E46174698460024434623
:103FD0003A4631462846FFF7E5FF2C894FF6F87040
:103FE000044044F007044FF68F70044044F070041E
:103FF0002C81BDE8F081F0B504460D4616461F46FB
:104000003B46324629462046FFF7CCFF208940F444
:1040100080402081F0BD0185828270470A460021E0
:1040200001884FF68F731940114301807047F0B536
:104030000C4615461E460021002200230189028BF2
:10404000038C4FF6F877394021434FF6FC473A404E
:1040500040F201173A434FF6DD773B404FF6FF77CA
:1040600007EA06172F433B43018102830384F0BD17
:104070000A460021018B4FF68F73194011430183CB
:1040800070470A460021018B48F6FF7319404FF62E
:10409000FF7303EA02231943018370470A46002194
:1040A000818B4FF68F7319401143818370470A4605
:1040B0000021818B48F6FF7319404FF6FF7303EA26
:1040C000022319438183704721B1028842F08002A4
:1040D000028004E002884FF67F731A400280704726
:1040E00021B1828842F00402828004E082884FF687
:1040F000FB731A408280704721B1828842F0080227
:10410000828004E082884FF6F7731A4082807047FD
:1041100021B1828842F00102828004E082884FF659
:10412000FE731A40828070470A460021018B4FF6C9
:10413000F77319401143018370470A460021018B30
:104140004FF2FF7319404FF6FF7303EA022319433E
:10415000018370470A460021818B4FF6F77319409F
:104160001143818370470A460021818B4FF2FF7310
:1041700019404FF6FF7303EA022319438183704706
:104180000A460021018B4FF6FB731940114301834E
:1041900070470A460021018B4FF6FF3319404FF656
:1041A000FF7303EA02231943018370470A46002183
:1041B000818B4FF6FB7319401143818370470A4688
:1041C0000021818B4FF6FF3319404FF6FF7303EA4E
:1041D00002231943818370470A460021018B4FF661
:1041E0007F7319401143018370470A460021018BF8
:1041F000C1F30E014FF6FF7303EA02231943018353
:1042000070470A460021818B4FF67F731940114396
:10421000818370470A460021818BC1F30E014FF65E
:10422000FF7303EA02231943818370470A46002182
:10423000018C4FF6FD7319401143018470470A4603
:104240000021018C4FF6F773194011430184704728
:104250000A460021018C4FF6DF7319404FF6FF73B9
:1042600003EA02131943018470470A460021018CB6
:104270004FF67F7319404FF6FF7303EA0213194399
:10428000018470470A460021018C4FF6FF53194004
:104290004FF6FF7303EA02231943018470470A466D
:1042A0000021018C4FF2FF7319404FF6FF7303EAB0
:1042B00002231943018470470A460021018C4DF600
:1042C000FF7319404FF6FF7303EA02331943018469
:1042D000704730B5002301248C40A3B2048C9C436A
:1042E0000484048C02FA01F5ADB22C43048430BD81
:1042F00030B5002304248C40A3B2048C9C43048476
:10430000048C02FA01F5ADB22C43048430BD70B5C3
:104310000346002000241846183001258D40ACB219
:104320001D8CA5431D8409B1082909D100EB61004A
:10433000056825F0700505600568154305600EE009
:104340000D1FC5F34E052844056825F4E0450560BA
:1043500005684FF6FF7606EA02263543056070BD14
:1043600021B1028842F00202028004E002884FF686
:10437000FD731A400280704721B1028842F00402A6
:10438000028004E002884FF6FB731A4002807047F7
:1043900021B1828842F08002828004E082884FF658
:1043A0007F731A408280704702884FF6F7731A4075
:1043B000028002880A430280704782884FF68F731A
:1043C0001A40828082880A438280704702894FF6B1
:1043D000F8731A40028102890A43028170470289F8
:1043E0004FF67F731A40028102890A4302817047A7
:1043F0008184704781857047818670470187704747
:1044000081877047A0F84010704702884FF6FF433D
:104410001A40028002880A43028070470146888E53
:1044200070470146088F70470146888F70470146E4
:10443000B1F8400070470146888C70470146088DEE
:10444000704702460020138A0B400BB1012000E0A8
:1044500000207047CA430282704730B502460020F0
:1044600000230024158A05EA0103958905EA010461
:1044700013B10CB1012000E0002030BDCA4302821C
:10448000704770471CB50C46064B7B44694600904C
:10449000204600F06AFA04460020694600F078FAE7
:1044A00020461CBD030500000FB4044910B503AA43
:1044B000029800F089FA10BC5DF814FB240000207B
:1044C00070B50C460546012A05D02878800600D52F
:1044D000EA69002302E0012305E05B1C934202D25B
:1044E000E05C0028F9D1A869E618C01AA861286A1A
:1044F00018442862284600F08CF904E0D5E901212F
:1045000014F8010B9047B442F8D3284600F097F90D
:1045100070BD00002DE9F0410646002410687529A1
:10452000314616A510D000F09BF9002802DA40426F
:1045300013A507E031688A0701D512A502E04907F3
:1045400004D511A5012401E000F093F900210A220D
:1045500006F1240709E0B0FBF2FCB0FBF2F302FB2A
:104560001C00303078541846491C0028F3D12346EB
:104570002A463046BDE8F04100F084B90000000052
:104580002D0000002B00000020000000F0B40D46BC
:104590000188090502D5214C7C4402E01F4C7C4473
:1045A0000E34002100F1240608E002F00F07120982
:1045B000E75D42EA03721B097754491C52EA03077C
:1045C000F3D102780023120704D5702D06D009B16B
:1045D000022311342246F0BC00F054B901231034F8
:1045E000F8E770B504460D462146106800F041F921
:1045F000024629462046BDE870400023C6E7D21D8A
:1046000022F00703D3E90023C0E70368126843F0F0
:10461000200303600823C3610023B7E72C3E00009A
:104620002DE9F05F894604464FF0000ADFF874B1C7
:10463000FB44C0F820A02046E1688847002874D0D9
:10464000252806D0D4E901219047206A401C206229
:10465000F1E700265F462046E168884720280546A6
:1046600007DB312D05D2781910F8200C08B106436C
:10467000F1E7B00701D526F00406C4F81CA0002716
:10468000C4F818A02A2D09D0284601F01FFA38B323
:1046900004EB8708303DC8F8185019E059F8041B9E
:1046A000204604EB87029161E1688847012F0546A7
:1046B00018D1E069002820DA26F020061DE0D8F89D
:1046C000180000EB800005EB40003038C8F81800F7
:1046D0002046E1688847054601F0F8F90028EED148
:1046E000012F0AD02E2D08D12046E16888477F1C73
:1046F0000546022F46F02006C4DBA069002803DA35
:10470000404246F00106A061F00701D026F01006F5
:104710006C2D0BD0682D09D04C2D39D06A2D35D099
:10472000742D35D07A2D33D016E038E0E1682F466D
:1047300020468847B842054609D16C2F26D04FF451
:104740008060E168064320468847054604E06C2FF8
:104750001AD04FF4807006430DB3A5F1410019281B
:1047600002D8203546F400664A462946204626608F
:104770004E46FBF717FD80B101280BD0F61D26F041
:10478000070000F1080956E74020E4E78020D8E759
:104790000020D6E706F104094DE7284652E7206AD3
:1047A000BDE8F09FBC3D000030B505460B462A46EB
:1047B00013F8014B12F8010B08B1A042F8D01CB15C
:1047C000002802D06D1CF1E7284630BD10B5431C0F
:1047D00002E010F8011B71B18107FAD14FF00132EC
:1047E00002C88C1A8C4314EAC211F9D0C01A0A0606
:1047F00003D0C01E10BDC01A10BD0A0401D0801E17
:1048000010BD0902FCD0401E10BD704770477047B4
:10481000704770B5044685690068C10601D5302629
:1048200000E02026C00707D070BDD4E90121304642
:104830009047206A401C20626D1EF6D570BD70B591
:10484000044685690078C00707D170BDD4E901210D
:1048500020209047206A401C20626D1EF6D570BD56
:1048600009684A0501D540B27047C905FCD500B2B8
:10487000704709684A0501D5C0B27047C905FCD523
:1048800080B270472DE9F0470D469946924604469E
:1048900000F124080168880604D5E06921F01001C0
:1048A000216000E00120A84201DD471B00E0002755
:1048B000A1697A1902EB0900081AA0612078C006E4
:1048C00002D42046FFF7A5FF002608E0D4E9012125
:1048D0001AF806009047206A401C761C20624E455C
:1048E000F4DB2078C0060AD52046FFF792FF06E0E9
:1048F000D4E9012130209047206A401C2062381EF4
:10490000A7F10107F4DC07E0D4E9012118F805005C
:104910009047206A401C2062281EA5F10105F3DCA7
:104920002046FFF78CFF2078000602D50220BDE864
:10493000F0870120FBE711680268006A530501D582
:1049400008700AE0D30501D5088006E0130603D5F8
:10495000C217C1E9000200E00860012070470000B2
:1049600001694A1C02610878704700B58FB0CDE933
:1049700001310021059105497944CDE90310114623
:104980006846FFF74DFE0FB000BD0000E5FFFFFFDA
:104990000A6802F8010B0A60704710B5436913B149
:1049A000AFF3008001E0FFF78BFD012010BD12780E
:1049B00000F124010A7000224A700122EDE711681B
:1049C0004FF0FF32E9E70000074B70B50D467B441E
:1049D000FFF7CBFF0446284600F046FB10B14FF02E
:1049E000FF3070BD204670BD39DFFFFF2DE9FF5F4E
:1049F00015468A460446DFF8AC80F8440027D8E91B
:104A000000103E46CDE9001010E03AF816106A4654
:104A100002A800F02DFB411C07D02178890603D5A0
:104A2000E269391891420DD80744761C2078800637
:104A300002D5E069B84205DDAE42E6DB3AF8160081
:104A40000028E2D1A069C01BA0612046FFF7E1FE6B
:104A5000D8E90010CDE90010002017E03AF818104E
:104A60006A4602A800F004FBB0F1FF3F81460BD07C
:104A700000250DF1080B05E0D4E901211BF8050024
:104A800090476D1C4D45F7D308F10100B0428046B8
:104A9000E4DB206A384420622046FFF7D0FEBDE800
:104AA000FF9F0000063A00002DE9F0418046D21D2C
:104AB00022F007020025D2E90002F52915A614D03C
:104AC000011E72F1000106DA0023D0EB030063EB54
:104AD000020211A608E0D8F800108B0701D50FA636
:104AE00002E0490701D50EA601251146002408F170
:104AF000240704E000F04EF830323A55641C50EAC6
:104B00000102F7D12B46324621464046BDE8F0412E
:104B1000FFF7B8BE000000002D0000002B000000D1
:104B20002000000030B4002100F1240408E002F06D
:104B30000705D208303542EA4372DB086554491C48
:104B400052EA0305F3D10468002310A2250707D514
:104B5000A40600D421B1C46901230DA2641EC4615E
:104B600030BCFFF78FBE10B5044621461068FFF732
:104B700080FE02462046BDE810400023D2E7D21D49
:104B800022F00701D1E90023CCE70000000000007B
:104B90003000000030B5B0F10A024FEA900E71F11A
:104BA00000034EEA817EB0EB0E0061EB91014FEA0B
:104BB000101E4EEA017E10EB0E0041EB11114FEA80
:104BC000102E4EEA016E10EB0E0041EB11214FEA60
:104BD000104E4EEA014E10EB0E0041EB1141401811
:104BE00041F100014FEAD00040EA41704FEAD101A3
:104BF00010EB80054FEA810444EA907444EB010411
:104C00006D1944EB0404521BA3414FF0000348BF4D
:104C10000A3200D530BD401C41F1000130BD704763
:104C20002DE9FF4F0C461E464FF0FF378BB0D2E9FF
:104C30000001DDF860800A908A46C1F30A5505B983
:104C40003D46002108464FF00000BAF1000F00F485
:104C5000400005DA00EB80004FF4400101EA50000B
:104C60004FEA9059B9F1010F00DDB9460A9850EAB0
:104C70004A000ED044F61050A5F2FF3545432F14DC
:104C8000B8F1000F1ED07542291E1EDDC9F10002C9
:104C90001CE0B8F1010F4FF0000001D0302103E01B
:104CA000F24305E02154401CB042FBDB30460022B9
:104CB000002121540B99C1F80880C1E900200FB0F0
:104CC000BDE8F08FBD1B6D1CDEE74A4600DA694285
:104CD00006A800F05FFA06AB93E8070003AB83E891
:104CE000070050460A9900F015FB8DE80700A0F573
:104CF00000501F3800900398002D0ADD42F21F017A
:104D00004A460844002303A90390684600F07EFD4C
:104D100009E0A0F500504A461F38002303A903907C
:104D2000684600F088FD8DE807000004000C03D001
:104D30004FF0FF30410800E01046B8F1000F03D0FB
:104D40000022009215461EE0751E05D4FFF722FFD3
:104D5000303262556D1EF9D5B3460122084302D0A8
:104D600000227F1C04E02078302801D100227F1E21
:104D7000002A099784D01DE0112D07DAFFF70AFFFA
:104D8000303262556D1C50EA0102F5D1084302D061
:104D90000098C8B10EE00021681E05E0235C625C4B
:104DA00063542254401E491C8142F7DBAB46A81BCA
:104DB000401E0990002004F80B000B98099AC0F8D7
:104DC0000880C0E9002B7AE711264FF0000857E76A
:104DD0002DE9F04F88460446D21D22F0070191B01C
:104DE000D1E90001CDE90A0100F05CFE02460B9812
:104DF000C00F01D02D2007E02068810701D52B20AE
:104E000002E0202101EAC000032A099001D0072A0C
:104E100005DB03464146204600F07CF90BE1207893
:104E2000800601D5E06900E00620B8F1650F8146F3
:104E300006D0B8F1660F18D0B8F1670F70D131E025
:104E40000020B9F1110F009001DB112301E009F1FD
:104E500001030AAA01A90CA8FFF7E2FEDDE90C7024
:104E6000002609F10105834647E001204B460090EA
:104E70004FF000470AAA01A90CA8FFF7D1FEDDE90F
:104E80000DB00C995D46002610B909F101000D180E
:104E9000B9EB050003D4C0F1FF3609F10105A5EB1C
:104EA00009002BE0B9F1010F01DA4FF001090020F0
:104EB000B9F1110F0090484601DD112300E00346CF
:104EC0000AAA01A90CA8FFF7ABFEDDE90C704D465C
:104ED00000268346207800070AD4AB4500DA5D46F9
:104EE00001A8012D04DD411911F8011C302907D05A
:104EF0004F4502DA17F1040F04DA012082460FE071
:104F00006D1EEEE7002F02DCED1B3E4403E0781C33
:104F1000A84200DD7D1CB81B00F1010A4FF00047DC
:104F20002078000703D4AA4501DB4FF0FF3A0021A7
:104F3000B7F1004F0DF143088DF8431024D0022043
:104F40002B23002F01DA7F422D230A21021EA0F11C
:104F5000010000DC5FB197FBF1FC97FBF1F201FB74
:104F60001C7C17460CF1300C08F801CDEEE7A8F1D7
:104F7000010003702188090501D5452100E0652164
:104F8000A0F1010800F8011C09980FA9A1EB08077E
:104F9000FF1D00B10120411901EBEA70A1693844FD
:104FA000081A401EA0612078C00602D42046FFF7F0
:104FB00030FC099828B1D4E901219047206A401CAF
:104FC00020622078C00622D52046FFF722FC1EE092
:104FD000002E04DBB34502DD01A8805D00E0302037
:104FE000D4E901219047206A401C2062761CAAF176
:104FF00001005FEA000A0AD100F088F8C068016881
:10500000405CD4E901219047206A401C2062281EA0
:10501000A5F10105DCDC07E0D4E9012118F8010B5A
:105020009047206A401C2062381EA7F10107F3DC7C
:105030002046FFF704FC032011B041E610B5436998
:1050400013B1AFF3008001E0FFF7D0FC012010BDE9
:10505000128800F1240182840022C2840122EDE73B
:1050600011684FF0FF32E9E7007B00F080007047E5
:1050700070B516460C46054600F040F8036893F8F4
:105080000101012806D0FF2C0FD8185D68B101205E
:105090002C7070BDD3F807013246214603F2071386
:1050A00003442846BDE8704018474FF0FF3070BDFC
:1050B000754600F0EBF8AE4605006946534620F011
:1050C0000700854618B020B5FDF7CAFCBDE82040B2
:1050D0004FF000064FF000074FF000084FF0000BB4
:1050E00021F00701AC46ACE8C009ACE8C009ACE867
:1050F000C009ACE8C0098D467047000010B500F04B
:1051000005F8001D10BD00BF010A000000487047EF
:10511000480400202DE9F0411F460446032601689B
:10512000072A01F4006004DB08B116A505E016A506
:1051300003E008B115A500E015A521F010002060DE
:10514000A069C01EA0610FB1401EA0612046FFF7FC
:1051500060FB4FB1D4E9012138469047206A401CDA
:105160002062C01C206206E0206AFAE7D4E901212F
:1051700015F8010B9047761EF8D22046FFF75FFB2B
:10518000BDE8F0814E414E006E616E00494E460012
:10519000696E66002DE9F047814616468AB03548AB
:1051A00078440DC88DE80D0032487844801C03AC6B
:1051B0000DC884E80D0041F69B300844372190FB70
:1051C000F1F290FBF1F5A5F1800501FB12041B3C07
:1051D00002D56442012000E00020DFF898A080465C
:1051E0000027FA44AAF1BE0A0EE0E0070AD03246D0
:1051F000684607EB470101230AEB810100F01BFB26
:105200008DE8070064107F1C002CEED1194F7F44FD
:10521000AE3F19E0E80715D007EB04100DF1180AAE
:1052200090E80E008AE80E00C068F04201D198199B
:1052300008903246012306A903A800F0FCFA03AB4C
:1052400083E807006D10641C002DE3D14FF00103CB
:1052500032466946B8F1000F03A802D000F0D6FA32
:1052600001E000F0E8FAC9E90001C9F808200AB035
:10527000BDE8F087E432000010B50446AFF30080CB
:105280002046BDE81040FAF7F0BF00000048704724
:10529000280400204FF0013C50F8042B51F8043B47
:1052A0009A4221D1A2EB0C03934313EACC1317D1FA
:1052B00050F8042B51F8043B9A4215D1A2EB0C0391
:1052C000934313EACC130BD150F8042B51F8043B51
:1052D0009A4209D1A2EB0C03934313EACC13DBD01F
:1052E0004FF00000704700BFD01A01BAB1FA81F147
:1052F00001F0180122FA01F0CB40C1F12001DBB22C
:10530000C0B2C01A2CFA01F3D11A914311EAC311A9
:10531000E6D170475FEA400C08BF91F0000F4FEAFA
:105320008C234FEAC12243EA51514FEA1C5018BF67
:1053300000F5F0404FEA300018BF41F000415FEA4D
:105340006C5C00F02980BCF1FF3F08BF40F080405A
:105350007047130C06BF12044FF0100C4FF0000CF6
:10536000130E04BF12020CF1080C130F04BF12013C
:105370000CF1040C930F04BF92000CF1020CD30F3C
:1053800004BF52000CF1010C11464FF00002A0F1D5
:105390001F00A0EB0C00704711F0004F08BF7047D2
:1053A00031F000413FF4D5AF0B0C06BF09044FF0BC
:1053B000100C4FF0000C0B0E04BF09020CF1080C8E
:1053C0000B0F04BF09010CF1040C8B0F04BF890003
:1053D0000CF1020CCB0F04BF49000CF1010CCCF115
:1053E0002003A0EB0C0022FA03F302FA0CF241EACC
:1053F000030100F10100704720F07F4C80EA0300B8
:1054000023F07F47ACEB070303F57C5300F000402B
:1054100003F1FF032DE980494FEA154B09B44FEA28
:10542000144325EA0B4E24EA03480FF2042606EB48
:10543000132749083E785FEA320203FB0667C7F587
:10544000000707FB06F64FEA54374FEAD64606F147
:10545000020607FB066CCCF1005C4FEA1C472CEA05
:10546000074C07FB06F40CFB06F504EB15464FEA68
:10547000961634BF00204FF000404FEAD13706FBAC
:1054800007FC4FEA1C4C0CFB0BF7D21B03FB0CF781
:1054900061EB07010CFB0EF7B0EB074072EB174214
:1054A0000CFB08F734BFA2EB0742B2EB074261EBFB
:1054B00017414FEA0C444FEA910706FB07FC4FEAFD
:1054C0001C4C0CFB0BF7B0EBC74072EB573203FBE5
:1054D0000CF734BFA2EBC742B2EBC74261EB5731C6
:1054E0000CFB0EF7B0EBC70072EB57720CFB08F722
:1054F00034BFA2EBC702B2EBC70261EB5771039F47
:105500004FEA816141EA921104EBCC044FEAD137B2
:105510004FEA826206FB07FC42EA90124FEA806083
:105520004FEA1C4C0CFB0BF7D21B03FB0CF761EB97
:1055300007010CFB0EF7B0EB074072EB17420CFBB8
:1055400008F734BFA2EB0742B2EB074261EB174109
:105550004FEA8C554FEA910704EB9C2406FB07FCAD
:105560004FEA1C4C0CFB0BF7B0EBC74072EB573209
:1055700003FB0CF734BFA2EBC742B2EBC74261EBAF
:1055800057310CFB0EF7B0EBC70072EB57720CFBF8
:1055900008F734BFA2EBC702B2EBC70261EB577149
:1055A00015EB4C254FEA816141EA92114FEA826284
:1055B0004FEAD13742EA901206FB07FC44F100049F
:1055C0004FEA80604FEA1C4C0CFB0BF7D21B03FB2D
:1055D0000CF761EB07010CFB0EF7B0EB074072EB29
:1055E00017420CFB08F734BFA2EB0742B2EB0742AD
:1055F00061EB174115EB1C154FEA813141EA9241ED
:105600004FEA823242EA90424FEA80304FEA0C760B
:1056100044F1000448EA03434EEA0B484FF0000E01
:10562000B2EB080C71EB030724BF624639464EEB20
:105630000E0E4FF0000B0018524149414BEB0B0B83
:10564000B2EB080C71EB03077BF1000B24BF624641
:1056500039464EEB0E0E4FF0000B001852414941F7
:105660004BEB0B0BB2EB080C71EB03077BF1000B60
:1056700024BF624639464EEB0E0E51EA020718BFB0
:1056800046F0010616EB0E7655F1000254F10001CA
:1056900003D5BDE88901BDE80088BDE88901BDE802
:1056A0000048B619524141EB0101A3F101037047D3
:1056B00080807F7E7D7C7B7A79787776767574734F
:1056C000727171706F6E6E6D6C6C6B6A6A6968680E
:1056D000676666656464636362616160605F5F5EA4
:1056E0005E5D5D5C5C5B5B5A5A595958585757561A
:1056F000565555555454535352525251515050507F
:105700004F4F4F4E4E4D4D4D4C4C4C4B4B4B4A4AD0
:105710004A49494948484847474747464646454514
:10572000454444444443434343424242424141414D
:10573000002B9C4630D477002BD01CB54FEA37079E
:1057400003B44FF010004FF01001BAF1000F06D073
:10575000BCF1000FDCBF40F0080040F008014FF042
:1057600000000FBCBDE810400BF1010BBBF1010FB5
:1057700008BF5FEA170722BF12F1010211F1010110
:105780004FF0004143F1000300F0004043EA000005
:105790007047F9D35708D0E746EA064613F1400FA1
:1057A0004FEA16461FDD13F1200FDFBF16430A46EE
:1057B000002120335B42BED0C3F1200746EA0646F3
:1057C00002FA07F74FEA164646EA0706C3F1200732
:1057D00022FA03F201FA07F721FA03F14FF000036E
:1057E00042EA0702A7E746EA020646EA06464FEA09
:1057F000164646EA0106BCBF46EA0646360C4FF09E
:1058000000034FF000024FF0000194E72DE9804CB7
:105810009A46934670B491E8380007C831EA400CC4
:1058200048BF34EA430C03D5FFF7E6FDFFF780FFDE
:10583000F0BCBDE8008C2DE9804C9A46934670B4CC
:1058400091E8380007C810F0804F08BF13F0804F70
:1058500003D100F005F8FFF76BFFF0BCBDE8008C4A
:1058600020F07F4780EA030023F07F4C07EB0C0316
:10587000A3F57C5300F00040A3F1FE0392F0000F6B
:1058800000F0B38095F0000F00F077802DE901491A
:105890004FEA11404FEA144621EA004800FB06FC9B
:1058A00024EA064708FB06F607FB08F800FB07F7A3
:1058B00018EB06484CEB164C4FEA124B18EB074816
:1058C0004FEA15464CEB174022EA0B4E0BFB06FC49
:1058D00025EA06470EFB06F607FB0EFE0BFB07F755
:1058E0001EEB064E4CEB164C4FF000061EEB074E1F
:1058F0004CEB174B18EB0B0840F1000018EB0E0BAC
:1059000058EB000840F100008F1A4FF000013CBF37
:10591000C943661B14BFB5EB040C00213CBFC9434F
:10592000F61B4FEA17444EEA8E0E27EA04454FEA6B
:105930001C4704FB07622CEA074C05FB07F70CFB2E
:1059400005F604FB0CFC16EB074642EB174216EB80
:105950000C4642EB1C421BEB060658EB020241418F
:1059600046EA9E0601D5BDE80189B619524141EBD0
:105970000101A3F10103BDE801894FEA14454FEA93
:10598000114724EA054621EA074C05FB07F406FB0C
:1059900007F70CFB06F105FB0CFC11EB074144EB90
:1059A00017444FEA124711EB0C4144EB1C4422EA26
:1059B000074C05FB07F206FB07F70CFB06F605FB99
:1059C0000CFC16EB074642EB174216EB0C4642EB7B
:1059D0001C456A1854F1000148BF7047B61952417E
:1059E00041EB0101A3F10103704795F0000F37D09F
:1059F0004FEA11424FEA144721EA024624EA074CD3
:105A000002FB07F106FB07F70CFB06F402FB0CFC9C
:105A100014EB074441EB17414FEA154714EB0C44D4
:105A200041EB1C4125EA074C02FB07F506FB07F793
:105A30000CFB06F602FB0CFC16EB074645EB174584
:105A400016EB0C4645EB1C42121951F1000148BF00
:105A50007047B619524141EB0101A3F101037047B0
:105A60004FEA14454FEA114724EA054621EA074C5C
:105A700005FB07F106FB07F70CFB06F24FF00006EB
:105A800005FB0CFC12EB074241EB174112EB0C42F9
:105A900051EB1C4148BF7047921841EB0101A3F143
:105AA00001037047490050EAC12018BF04204A0D85
:105AB00018BF40F0010040F2FF72B2EB515F08BF27
:105AC00040F00200012808BF0520704730380A283E
:105AD00001D20120704700207047000010B5002956
